:020000020000FC
:100000000C9406000C9422000C942E000FEF0DBFF0
:1000100008E00EBFF89400E80093610004E000934C
:10002000610052985A9A53985B9A0FEF07B900E013
:1000300008B905E000936900E89AE99A222728B9EF
:100040007894FFCF0F930FB70F931F930E943A003E
:1000500028B91F910F910FBF0F9118950F930FB7EC
:100060000F931F930E943F0028B91F910F910FBF5C
:100070000F9118952395203109F420E00895203040
:0A00800011F02A9508952FE008956D
:00000001FF
