S00F00005072656C6162342E737265638B
S11300000C9434000C9446000C9446000C9460004C
S11300100C9446000C9446000C9446000C94460044
S11300200C9446000C9446000C9446000C94460034
S11300300C9446000C9446000C9446000C94460024
S11300400C9446000C9446000C9446000C94460014
S11300500C9446000C9446000C9446000C94460004
S11300600C9446000C94460011241FBECFEFD8E038
S1130070DEBFCDBF21E0A0E0B1E001C01D92A13000
S1130080B207E1F70E9453000C947D000C94000029
S1130090E8E6F0E0808181608083EBE6F0E0808137
S11300A08861808308958FEF87B918B884B1877EFB
S11300B084B985B1886185B90E9448007894FFCFDE
S11300C01F920F920FB60F9211248F931B9905C0A4
S11300D0809100018F5F809300011C9905C080917D
S11300E000018150809300018091000188B98F91B3
S11100F00F900FBE0F901F901895F894FFCF3D
S9030000FC
