S00C00004C6162342E73726563D5
S11300000C9434000C9451000C9451000C94AD00E9
S11300100C9451000C9451000C9451000C94510018
S11300200C9451000C9451000C9451000C94510008
S11300300C9451000C9451000C9451000C945100F8
S11300400C94C7000C9451000C9451000C94510072
S11300500C9451000C94FC000C9451000C9451002D
S11300600C9451000C94510011241FBECFEFD8E022
S1130070DEBFCDBF11E0A0E0B1E0ECE5F2E002C0EC
S113008005900D92A032B107D9F721E0A0E2B1E0CA
S113009001C01D92A432B207E1F70E947E000C94C5
S11300A02C010C940000E8E6F0E0808181608083FC
S11300B0EBE6F0E08081886180830895F894E1E6BE
S11300C0F0E080E8808384E0808385E085BD8BEF69
S11300D086BD81E080936E0078940895ECE7F0E0AB
S11300E01082808187668083EAE7F0E01082808155
S11300F08E68808380818064808308958FEF8AB9BD
S11301001BB884B1877E84B984B1876084B985B112
S1130110886185B987B1816087B988B18E7F88B9D4
S11301201092C1000E9453000E946E000E945E0063
S113013078949091790080912201981720F088B1E9
S1130140816088B903C088B18E7F88B983EC99E057
S11301500197F1F700C00000ECCF1F920F920FB689
S11301600F9211248F931B9905C0809122018F5FF8
S1130170809322011C9905C08091220181508093B3
S113018022018F910F900FBE0F901F9018951F9210
S11301900F920FB60F9211248F938BEF86BD80912F
S11301A023018F5F8093230185B1887F85B9809176
S11301B02301823059F0833081F08130A9F485B174
S11301C0816085B9809120018BB910C085B18260AE
S11301D085B9809121018BB909C085B1846085B945
S11301E0809122018BB902C0109223018F910F904C
S11301F00FBE0F901F9018951F920F920FB60F927B
S113020011248F93AF93BF93EF93FF93A9E7B0E0CB
S1130210EC91E295EF70F0E0EE0FFF1FE050FF4F1E
S1130220808180932001EC91EF70F0E0EE0FFF1FCE
S1130230E050FF4F808180932101EAE7F0E0808164
S113024080648083FF91EF91BF91AF918F910F9064
S10F02500FBE0F901F901895F894FFCF7C
S113025C7E0030006D00790033005B005F0070009D
S113026C7F007B0077001F004E003D004F004700CD
S9030000FC
