:020000020000FC
:040000000C94270035
:04000C000C945500FB
:100040000C946F007E306D79335B5F707F7B0FEFB8
:100050000DBF08E00EBFF89400E80093610004E0D3
:100060000093610003E005BD04E606BD20982198D9
:100070002A982B980FEF0AB907B900E00BB908B915
:100080000E94500000E00093C10001E000936E0068
:1000900003E000936B0001E0009368007894FFCFC9
:1000A000E4E4F0E064916BB908950F930FB70F93F8
:1000B00013B1189B0E946400199B0E94690028B923
:1000C0000F910FBF0F9118952395203109F420E06F
:1000D0000895203011F02A9508952FE008950F9388
:1000E0000FB70F93A89A04E606BD4395443661F412
:1000F00033953A3031F430E0539540E0563009F40E
:1001000050E0649140E015C0703011F0713049F05A
:10011000E4E4F0E0E30F64912A9A2B986BB971E064
:1001200008C0E4E4F0E0E50F64912A982B9A6BB9DB
:0A01300070E00F910FBF0F911895BA
:00000001FF
