:020000020000FC
:100000000FEF0DBF08E00EBF00E004B90FEF05B918
:100010000FEF07B90AB900E008B90BB910E020E00A
:1000200050E000E80093610004E00093610003B138
:100030005017E9F30E94480003B15017502F189B46
:100040000E943300199B0E9437001A9B0E943B00BC
:100050001B9B0E943F001C9B0E944300622F6295E5
:10006000610F6BB9E4CF1F3011F313950895103071
:10007000F1F21A9508952F30D1F22395089520308A
:10008000B1F22A950895422F410F48B908953FEFE4
:100090003A953030E9F73FEF3A953030E9F73FEFE6
:0800A0003A953030E9F70895AC
:00000001FF
