S01400004C61626F7261746F72696F362E737265635C
S11300000C9434000C9449000C9449000C9449005D
S11300100C9449000C9449000C9449000C94490038
S11300200C9449000C9449000C9449000C94490028
S11300300C9449000C9449000C9449000C94490018
S11300400C9449000C9449000C9440010C94490010
S11300500C9449000C9449000C9449000C944900F8
S11300600C9449000C94490011241FBECFEFD8E032
S1130070DEBFCDBF11E0A0E0B1E0EAE1F3E002C0F1
S113008005900D92AA38B107D9F70E94B2000C94DA
S11300908B010C9400008AB182608AB98AB18E7F88
S11300A08AB9E1ECF0E0808188698083E2ECF0E0D9
S11300B080818660808387E690E09093C50080937A
S11300C0C40008959091C00095FFFCCF8093C600B2
S11300D008950F931F93CF938C01C0E0F801EC0FA8
S11300E0F11D8081882321F00E946200CF5FF6CF4A
S11300F0CF911F910F910895ECE7F0E08081876420
S11301008083EAE7F0E0808187688083808180646F
S113011080830895F8948FEF84B90E944B000E9465
S11301207C0078940895EAE7F0E08081806480831D
S113013080917A0086FDFCCF8091780090917900BF
S1130140089580E091E00E94690089E091E00E94B6
S1130150690080E291E00E94690081E391E00E94DD
S1130160690008950E948A0085E40E94620087E481
S11301700E94620083E30E94620089E491E00E948D
S113018069000E94A100FFCFEF92FF920F931F938B
S1130190CF93AC018C011695079516950795169586
S11301A007959801A5ECB0E20E947C01FC01F29550
S11301B0E295EF70EF27FF70EF2728EE33E0E29F20
S11301C0C001E39F900DF29F900D11249A01281B0A
S11301D0390B3695279536952795ABE7B4E10E9400
S11301E07C017C01F694E7949A013695279536951F
S11301F027950E947C019695879564E6689F9001F7
S1130200699F300D1124CA01821B930B9C01369502
S11302102795369527950E947C018C0116950795A4
S11302209A01ADECBCEC0E947C019695879596955D
S11302308795969587959C01220F331F880F991FE8
S1130240880F991F880F991F820F931FC42FC81BF3
S1130250309721F080E38E0F0E94620080E38E0DC0
S11302600E94620080E3800F0E94620080E38C0F92
S11302700E946200CF911F910F91FF90EF9008951B
S11302801F920F920FB60F9211242F933F934F9307
S11302905F936F937F938F939F93AF93BF93EF93EA
S11302A0FF938091C600813349F40E9493000E9419
S11302B0C40084E791E00E9469000BC0823329F4F2
S11302C082E691E00E94690004C086E791E00E9402
S11302D069000E94A100FF91EF91BF91AF919F919E
S11302E08F917F916F915F914F913F912F910F90DB
S11302F00FBE0F901F901895A29FB001B39FC0012D
S1130300A39F700D811D1124911DB29F700D811D3D
S10D03101124911D0895F894FFCF05
S113031A0A0A4D656E753A0A00312E204C656572DB
S113032A20506F74656E63696F6D6574726F0A002D
S113033A322E20456E766961722041534349490A37
S113034A0053656C656363696F6E6520756E612021
S113035A6F7063696F6E3A0A000A20456C206465FF
S113036A6C61792065732064656C20646961626CD0
S113037A6F000A456E7669616E646F204153434982
S113038A492E2E2E0A000A4F7063696F6E20696E19
S10D039A76616C6964612E0A0000AC
S9030000FC
