:100000000C9434000C9446000C9446000C9446006A
:100010000C9446000C9446000C9446000C94460048
:100020000C9446000C9446000C9446000C94460038
:100030000C9446000C9446000C9446000C94460028
:100040000C94FE000C9446000C9446000C94460060
:100050000C9446000C9493000C9446000C944600BB
:100060000C9446000C94460011241FBECFEFD8E03C
:10007000DEBFCDBF21E0A0E0B1E001C01D92A730FE
:10008000B207E1F70E947E000C9424020C94000059
:10009000F894E1E6F0E080E8808384E0808360E427
:1000A00070E080E00E94330160E470E080E00E9434
:1000B000920184B1806284B985B18F7D85B984B5A0
:1000C0008C7F84BD85B5816085BDEEE6F0E08081E2
:1000D000816080831092C10078940895ECE7F0E08D
:1000E0001082808187668083EAE7F0E01082808159
:1000F0008E68808380818064808308950E94480098
:100100000E946E0080910001909101010E948D017A
:10011000809102010E94F9018FE99FE00197F1F7B8
:1001200000C00000EFCF1F920F920FB60F92112464
:100130002F935F936F937F938F939F93AF93BF930F
:10014000EF93FF9390917C009770809179009730A6
:10015000C1F42EE1829FC00111246FEF70E00E9474
:10016000FC01685F7F4F7093010160930001ECE731
:10017000F0E0108280818066808380818660808349
:1001800029C09630A9F42EE1829FC00111246FEF9F
:1001900070E00E94FC01695F60930201ECE7F0E00F
:1001A000108280818066808380818560808312C018
:1001B000953081F48091790090E0909306018093CE
:1001C0000501ECE7F0E01082808180668083808109
:1001D00087608083EAE7F0E0808180648083FF911C
:1001E000EF91BF91AF919F918F917F916F915F91AF
:1001F0002F910F900FBE0F901F9018951F920F9286
:100200000FB60F9211242F933F938F939F932091BA
:100210000301309104018091050190910601281796
:10022000390720F485B1806285B903C085B18F7D1F
:1002300085B9809103019091040101969093040186
:10024000809303018F3F910529F020F01092040163
:10025000109203019F918F913F912F910F900FBEAC
:100260000F901F90189594B1926094B9E0E8F0E077
:1002700090819F739083813021F48081806C808392
:1002800005C0E0E8F0E0808180688083E0E8F0E08D
:10029000808182608083E1E8F0E0808188618083F2
:1002A00088E391E090938700809386006034710525
:1002B000E1F038F46130710561F06830710579F072
:1002C00026C0611581E07807B1F061157440C9F06E
:1002D0001EC0E1E8F0E08081816080830895E1E85C
:1002E000F0E08081826080830895E1E8F0E0808121
:1002F000836080830895E1E8F0E0808184608083FA
:100300000895E1E8F0E08081856080830895E1E868
:10031000F0E08081826080830895909389008093CB
:100320008800089594B1986094B9E0EBF0E0908172
:100330009F739083813021F48081806C808305C01D
:10034000E0EBF0E0808180688083E0EBF0E080818A
:1003500083608083E1EBF0E080818B7F8083603479
:10036000710549F150F468307105C9F060327105CA
:10037000E1F061307105B9F50CC0611581E07807D5
:1003800031F1611584E0780741F16038710559F564
:1003900018C0E1EBF0E08081816080830895E1EB9B
:1003A000F0E08081826080830895E1EBF0E080815D
:1003B000836080830895E1EBF0E080818460808336
:1003C0000895E1EBF0E08081856080830895E1EBA2
:1003D000F0E08081866080830895E1EBF0E0808129
:1003E000876080830895E1EBF0E080818660808300
:1003F00008958093B300089597FB072E16F4009498
:1004000007D077FD09D00E94100207FC05D03EF40A
:10041000909581959F4F0895709561957F4F0895B0
:10042000AA1BBB1B51E107C0AA1FBB1FA617B7071A
:1004300010F0A61BB70B881F991F5A95A9F7809536
:0C0440009095BC01CD010895F894FFCF09
:00000001FF
