:020000020000FC
:100000007E306D79335B5F707F7B771F4E3D4F474E
:100010000FEF0DBF08E00EBF00E80093610004E0A1
:100020000093610005E005BD0EE906BD00E004B9DE
:100030000FEF05B90FEF0AB907B900E00BB908B91E
:1000400000E00093C10000E010E050E020E060E03C
:1000500040E070E030E00E944E0005B300FF0BC0AE
:10006000A89A0EE906BD83958A3029F488270E9454
:100070006A000E94510043B1541779F30E94710045
:1000800043B1541751F3542F189B0E945700199BEA
:100090000E94600064916BB97030DFCFE0E0F0E067
:1000A00008953395303109F430E038B908957395E7
:1000B0003196703121F40E944E0070E00895089549
:1000C000703019F07A95319708957FE00E944E00C4
:1000D0003F960895872F381709F008951B9A38B96D
:1000E00008952FEF2A952030E9F72FEF2A95203039
:0C00F000E9F72FEF2A952030E9F708957A
:00000001FF
